:020000040800F2
:100000000000022009160008950400089704000863
:10001000990400089B0400089D04000800000000EB
:100020000000000000000000000000009F04000825
:10003000A104000800000000A3040008A5040008B3
:100040005D1600085D1600085D1600085D160008C4
:100050005D1600085D1600085D1600085D160008B4
:100060005D1600085D1600085D1600085D160008A4
:100070005D1600085D1600085D1600085D16000894
:100080005D1600085D1600085D1600085D16000884
:100090005D1600085D1600085D1600085D16000874
:1000A0005D1600085D1600085D1600085D16000864
:1000B0005D1600085D1600085D1600085D16000854
:1000C0005D1600085D1600085D1600085D16000844
:1000D0005D1600085D1600085D1600085D16000834
:1000E0005D1600085D160008000000005D1600089F
:1000F0005D1600085D1600085D1600085D16000814
:100100005D1600085D1600085D1600085D16000803
:100110005D1600085D1600085D1600085D160008F3
:100120005D1600085D1600085D1600085D160008E3
:100130005D1600085D1600085D1600085D160008D3
:1001400000000000000000000000000000000000AF
:100150005D1600085D1600085D1600085D160008B3
:100160005D1600085D1600085D1600085D160008A3
:100170005D1600085D1600085D160008000000000E
:100180005D1600085D1600085D1600085D16000883
:100190005D1600085D1600085D1600085D16000873
:1001A0005D1600085D1600085D1600085D16000863
:1001B0005D1600085D1600085D1600085D16000853
:1001C0005D1600085D1600085D1600085D16000843
:1001D0005D1600085D1600085D1600085D16000833
:1001E0005D1600085D1600085D1600085D16000823
:1001F0005D1600085D1600085D1600085D16000813
:100200005D1600085D1600085D1600085D16000802
:100210005D1600085D1600085D1600085D160008F2
:100220005D1600085D1600085D160008000000005D
:100230005D1600085D160008000000005D1600084D
:100240005D1600085D1600085D1600085D160008C2
:100250005D1600085D1600085D1600085D160008B2
:100260005D1600085D1600085D1600085D160008A2
:100270005D1600085D1600085D160008000000000D
:100280005D1600085D1600085D16000800000000FD
:08029000000000005D160008EB
:1002980010B5054C237833B9044B13B10448AFF3B8
:1002A80000800123237010BD100000200000000012
:1002B800B816000808B5034B1BB103490348AFF350
:1002C800008008BD0000000014000020B8160008D7
:1002D80010B584B00024009401940294039400F0B3
:1002E8004FF901238DF800308DF8014001941F2249
:1002F8008DF8082087228DF809208DF80A408DF89E
:100308000B408DF80C308DF80D308DF80E408DF8BF
:100318000F40684600F052F9042000F03FF904B09D
:1003280010BD000030B589B00024039404940594EE
:1003380006940794164BD3F8E02042F00402C3F861
:10034800E020D3F8E02002F004020192019AD3F8E9
:10035800E02042F00102C3F8E020D3F8E03003F0D7
:1003680001030293029B0B4D22464FF4005128468D
:1003780001F004F84FF40053039301230493059309
:10038800069403A9284600F0E3FE09B030BD00BF7B
:10039800004402580008025872B6FEE700B59DB046
:1003A8004C22002109A801F07BF92022002101A894
:1003B80001F076F9022000F0F1FF00230093264BAC
:1003C8009A6942F440429A619B6903F4404300935E
:1003D800224BDA6A42F00102DA62DB6A03F00103B7
:1003E8000093009B1C4B9B6913F4005FFAD0022317
:1003F800099301220C9240220D921293002213922B
:10040800042114913C2115911693179318930C23EA
:1004180019931A921B9209A800F0FCF8B8B93F2367
:100428000193032302930023039308230493402397
:10043800059306934FF480620792089304210DEB0D
:10044800010000F03BFD20B91DB05DF804FBFFF78B
:10045800A3FFFFF7A1FF00BF00480258000400589F
:1004680008B5FFF735FF00F0EBFFFFF797FFFFF741
:1004780059FF4FF40051044800F086FF4FF4FA701A
:1004880001F01EF8F5E700BF00080258FEE7FEE796
:10049800FEE7FEE7FEE770477047704708B500F0D3
:1004A800FDFF08BD82B0074BD3F8F42042F00202EA
:1004B800C3F8F420D3F8F43003F002030193019B4E
:1004C80002B07047004402580649CB6823F4E06341
:1004D8001B041B0C000200F4E0600343024A1A43A9
:1004E800CA60704700ED00E00000FA0500B5174B40
:1004F800DB68C3F30223C3F1070CBCF1040F28BF68
:100508004FF0040C03F1040EBEF1060F14D9033B9F
:100518004FF0FF3E0EFA0CFC21EA0C0199400EFA4E
:1005280003F322EA03031943002807DB0901C9B2D0
:10053800074B19545DF804FB0023E9E700F00F00AE
:100548000901C9B2034B1954F4E700BF00ED00E0FC
:1005580000E400E014ED00E00138B0F1807F0BD238
:100568004FF0E0235861054AF02182F8231000205B
:10057800986107221A6170470120704700ED00E07A
:10058800BFF35F8F044B5A6A22F480325A6200220A
:10059800C3F89420704700BF00ED00E040F0010070
:1005A800054BC3F894005A6A42F480325A62BFF38A
:1005B8004F8FBFF36F8F704700ED00E04378144A08
:1005C800C2F89830D2F8A03023F00103C2F8A03066
:1005D8004368C2F89C30017BC37A1B0643EA017367
:1005E800817A43EAC143417B43EA8143817B43EA01
:1005F8004143C17B43EA0143417A43EA0123017A3B
:1006080043EA410301780B43C2F8A030704700BFAA
:1006180000ED00E0002800F0398338B5044603688F
:1006280013F0010F25D0944A136903F03803926A36
:10063800102B15D0182B0FD06368B3F5803F3FD02F
:10064800002B53D18C4B1A6822F480321A601A6836
:1006580022F480221A6038E002F00302022AEBD169
:10066800854B1B6813F4003F03D06368002B00F030
:100678000F83236813F0020F00F0A1807E4A1369EC
:10068800926A13F038035AD0182B55D0E368002B20
:1006980000F0DE8078490A6822F0190213430B60E3
:1006A80000F008FF0546744B1B6813F0040F40F078
:1006B800AD8000F0FFFE401B0228F4D90320EEE2D3
:1006C8006D4A136843F48033136063682BB300F0FA
:1006D800F1FE0546684B1B6813F4003FC9D100F0D2
:1006E800E9FE401B6428F5D90320D8E2B3F5A02F12
:1006F80009D0614B1A6822F480321A601A6822F411
:1007080080221A60E1E75C4B1A6842F480221A6082
:100718001A6842F480321A60D7E700F0CBFE05462B
:10072800554B1B6813F4003FA3D000F0C3FE401BD9
:100738006428F5D90320B2E212F0030FA6D14E4B7C
:100748001B6813F0040F03D0E368002B00F0A282AB
:10075800494A136823F01903E1680B43136000F05A
:10076800A9FE0546444B1B6813F0040F06D100F0A0
:10077800A1FE401B0228F5D9032090E200F0B4FE48
:1007880041F20303984212D82269402A07D03A4915
:100798004B6823F47C3343EA02334B600FE0364A5C
:1007A800536823F47C3343F40033536007E0324A40
:1007B800536823F0FE43216943EA016353602368C9
:1007C80013F0100F00F088802B4A136903F03803E8
:1007D800926A082B56D0182B50D0E369002B00F0F2
:1007E800B880254A136843F08003136000F062FE66
:1007F8000546214B1B6813F4807F40F0888000F089
:1008080059FE401B0228F4D9032048E200F06CFE90
:1008180041F20303984212D82269402A07D01649A8
:100828004B6823F47C3343EA02334B60C7E7124A30
:10083800536823F47C3343F400335360BFE70E4A14
:10084800536823F0FE43216943EA01635360B6E726
:10085800094A136823F00103136000F02BFE0546D4
:10086800054B1B6813F0040FA9D000F023FE401BB2
:100878000228F5D9032012E20044025802F00302CC
:10088800012AAAD1A14B1B6813F4807F03D0E36926
:10089800802B40F0018200F027FE41F203039842CA
:1008A80012D8226A202A07D098494B6823F0F843C7
:1008B80043EA82634B600FE0944A536823F0F8439D
:1008C80043F08043536007E0904AD36823F07C5399
:1008D800216A43EA0163D360236813F0080F60D0EC
:1008E8006369002B49D0894A536F43F0010353676A
:1008F80000F0E0FD0546854B5B6F13F0020F50D109
:1009080000F0D8FD401B0228F5D90320C7E100F00C
:10091800EBFD41F20303984212D8226A202A07D03D
:100928007A494B6823F0F84343EA82634B60D3E784
:10093800764A536823F0F84343F080435360CBE78B
:10094800724AD36823F07C53216A43EA0163D36077
:10095800C2E76E4A136823F08003136000F0AAFD13
:1009680005466A4B1B6813F4807FB5D000F0A2FDE2
:10097800401B0228F5D9032091E1644A536F23F004
:100988000103536700F096FD0546604B5B6F13F05B
:10099800020F06D000F08EFD401B0228F5D9032077
:1009A8007DE1236813F0200F29D0A3699BB1574A32
:1009B800136843F48053136000F07CFD0546534BE5
:1009C8001B6813F4005F1AD100F074FD401B022865
:1009D800F5D9032063E14D4A136823F4805313606B
:1009E80000F068FD0546494B1B6813F4005F06D00C
:1009F80000F060FD401B0228F5D903204FE1236871
:100A080013F0040F21D1636A002B00F047813F4A9D
:100A1800126902F03802182A00F0EE80022B79D011
:100A28003A4A136823F08073136000F043FD0446CC
:100A3800364B1B6813F0007F00F0DC8000F03AFDB5
:100A4800001B0228F4D9032029E1314A136843F432
:100A58008073136000F02EFD05462D4B1B6813F4C0
:100A6800807F06D100F026FD401B6428F5D90320BD
:100A780015E1A368012B0AD00BBB244B1A6F22F097
:100A880001021A671A6F22F004021A6704E01F4A6B
:100A9800136F43F001031367A36833B300F00AFD33
:100AA80005461A4B1B6F13F0020FACD100F002FD84
:100AB800401B41F288339842F3D90320EFE0052B1D
:100AC80009D0124B1A6F22F001021A671A6F22F02E
:100AD80004021A67E0E70D4B1A6F42F004021A6726
:100AE8001A6F42F001021A67D6E700F0E3FC0546E8
:100AF800064B1B6F13F0020F85D000F0DBFC401B88
:100B080041F288339842F3D90320C8E000440258E0
:100B180000480258694A136823F08073136000F094
:100B2800C9FC0546654B1B6813F0007F06D000F032
:100B3800C1FC401B0228F5D90320B0E05F4B996A3D
:100B48005F4A0A40A16AE06A41EA00110A439A62D0
:100B5800226B013AC2F30802616B0139490289B27A
:100B68000A43A16B0139090401F4FE010A43E16B50
:100B78000139090601F0FE410A431A63DA6A22F0D4
:100B88000102DA62596B4F4A0A40A16C42EAC1027B
:100B98005A63DA6A22F00C02216C0A43DA62DA6AD2
:100BA80022F00202616C0A43DA62DA6A42F48032A5
:100BB800DA62DA6A42F40032DA62DA6A42F48022ED
:100BC800DA62DA6A42F00102DA621A6842F0807286
:100BD8001A6000F06FFC0446384B1B6813F0007F66
:100BE80006D100F067FC001B0228F5D9032056E067
:100BF800002054E0002052E0304A916A106B012B2B
:100C08004ED001F00303A26A93424BD1C1F3051100
:100C1800E36A994248D1C0F30802236B013B9A4228
:100C280044D1C0F34622636B013B9A4240D1C0F3E2
:100C38000642A36B013B9A423CD1C0F30660E36BCA
:100C4800013B984238D11D4B5B6BC3F3CC03A26CBC
:100C58009A4201D1002022E0184AD36A23F0010306
:100C6800D36200F027FC054600F024FCA842FBD024
:100C7800124A516B134B0B40A16C43EAC1035363F7
:100C8800D36A43F00103D362002008E001207047D3
:100C9800012004E0012002E0012000E0002038BD2E
:100CA8000120FCE70120FAE70120F8E70120F6E738
:100CB8000120F4E70120F2E70120F0E700440258A0
:100CC8000CFCFFFF0700FFFF744B1B6903F03803A0
:100CD800102B00F0DE80182B10D00BB17048704735
:100CE8006E4B1B6813F0200F00F0D5806B4B186813
:100CF800C0F3C1006B4B23FA00F0704710B4674A89
:100D0800916A01F00301946AC4F30510D36A03F0F1
:100D1800010C536BC3F3CC030CFB03F307EE903ABF
:100D2800F8EE677A14F47C7F00F09380012965D08F
:100D3800022900F09180E1B107EE100AF8EE476A47
:100D48009FED596A86EE267A544B1B6BC3F3080352
:100D580006EE903AF8EE666A9FED546A67EE867A78
:100D680076EEA77AF7EE006A77EEA67A27EE277A6C
:100D780060E0136813F0200F23D011461268C2F305
:100D8800C102484BD34007EE103AF8EE476A07EE27
:100D9800100AB8EE476A86EE867A0B6BC3F308032F
:100DA80006EE903AF8EE666A9FED406A67EE867A3C
:100DB80076EEA77AF7EE006A77EEA67A27EE277A1C
:100DC80038E007EE100AF8EE476A9FED396A86EEBA
:100DD800267A324B1B6BC3F3080306EE903AF8EE03
:100DE800666A9FED326A67EE867A76EEA77AF7EE44
:100DF800006A77EEA67A27EE277A1BE007EE100A3C
:100E0800F8EE476A9FED286A86EE267A234B1B6B1D
:100E1800C3F3080306EE903AF8EE666A9FED236A7C
:100E280067EE867A76EEA77AF7EE006A77EEA67A0C
:100E380027EE277A194B1B6BC3F34623013307EEC2
:100E4800903AF8EE677AC7EE276AFCEEE67A17EE74
:100E5800900A5DF8044B704707EE100AF8EE476AEF
:100E68009FED146A86EE267A0C4B1B6BC3F30803BE
:100E780006EE903AF8EE666A9FED0C6A67EE867A9F
:100E880076EEA77AF7EE006A77EEA67A27EE277A4B
:100E9800D0E7094870470348704700BF004402582C
:100EA80000093D000090D0030024744A0000003976
:100EB8000024744C20BCBE4B40787D01002800F013
:100EC800328170B50D4604469B4B1B6803F00F0337
:100ED8008B420BD2984A136823F00F030B4313601D
:100EE800136803F00F038B4240F01F81236813F04F
:100EF800040F0CD02269914B9B6903F070039A424E
:100F080005D98E498B6923F070031A438A612368D7
:100F180013F0080F0CD06269884BDB6903F070038B
:100F28009A4205D98549CB6923F070031A43CA61EF
:100F3800236813F0100F0CD0A269804BDB6903F40F
:100F4800E0639A4205D97D49CB6923F4E0631A43EB
:100F5800CA61236813F0200F0CD0E269774B1B6A33
:100F680003F070039A4205D974490B6A23F07003A1
:100F78001A430A62236813F0020F0CD0E2686F4B21
:100F88009B6903F00F039A4205D96C498B6923F0DA
:100F98000F031A438A61236813F0010F41D0674A8F
:100FA800936923F47063A1680B4393616368022B10
:100FB8000AD0032B27D0012B2CD0604A126812F0DC
:100FC800040F06D10120ADE0126812F4003F00F0D2
:100FD800AE805A490A6922F0070213430B6100F0F8
:100FE80069FA0646554B1B6903F038036268B3EB90
:100FF800C20F16D000F05EFA801B41F28833984287
:10100800F0D903208EE04D4A126812F0007FE0D13B
:10101800012087E0494A126812F4807FD9D1012063
:1010280080E0236813F0020F0CD0E268434B9B6901
:1010380003F00F039A4205D240498B6923F00F034E
:101048001A438A613C4B1B6803F00F03AB420AD971
:10105800394A136823F00F032B431360136803F016
:101068000F03AB4265D1236813F0040F0CD022693B
:10107800324B9B6903F070039A4205D22F498B6962
:1010880023F070031A438A61236813F0080F0CD009
:1010980062692A4BDB6903F070039A4205D227493B
:1010A800CB6923F070031A43CA61236813F0100F49
:1010B8000CD0A269214BDB6903F4E0639A4205D2A4
:1010C8001E49CB6923F4E0631A43CA61236813F00D
:1010D800200F0CD0E269194B1B6A03F070039A4287
:1010E80005D216490B6A23F070031A430A62FFF708
:1010F800EBFD12498B69C3F30323114AD35C03F058
:101108001F03D8408B6903F00F03D35C03F01F0360
:1011180020FA03F30B4A13600B4B18600B4B18684B
:1011280000F066F970BD012070470120FAE7012040
:10113800F8E70120F6E700BF0020005200440258FB
:10114800D01600080C000020080000200400002031
:10115800F0B583B000236FE085685E000324B440D7
:1011680025EA0405CC68B4402C438460446824EA2A
:101178000C0C4C68C4F300149C4044EA0C04446012
:101188006DE08C68012C6FD17DE0DD08083550F8E2
:10119800256003F007044FEA840C0F2404FA0CF4CA
:1011A80026EA040E0C6904FA0CF444EA0E0440F82A
:1011B80025406EE0092400E0002404FA0EF42C43D4
:1011C8000CF1020C6A4D45F82C404FF0B0442568EC
:1011D800D44325EA02064F6817F4801F01D042EA7B
:1011E80005064FF0B0452E606D6804EA05064F68A5
:1011F80017F4001F01D042EA05064FF0B0456E60B3
:10120800D5F8845004EA05064F6817F4003F01D06A
:1012180042EA05064FF0B045C5F88460D5F880501D
:101228002C404E6816F4803F01D042EA05044FF086
:10123800B042C2F8804001330A6832FA03F400F081
:1012480095804FF0010C0CFA03FC1CEA0202F2D064
:101258004C6804F00304013C012C7FF67DAF4C6818
:1012680004F00304032C8CD0C4684FEA430E4FF0FB
:10127800030C0CFA0EFC24EA0C0C8C6804FA0EF42D
:1012880044EA0C04C4604C6804F00304022C3FF4E4
:101298007CAF04684FEA430E4FF0030C0CFA0EFCC7
:1012A80024EA0C0C4C6804F0030404FA0EF444EA33
:1012B8000C0404604C6814F4403FBCD02D4CD4F8A6
:1012C800F45045F00205C4F8F450D4F8F44004F0A2
:1012D80002040194019C4FEA930C0CF10205244C82
:1012E80054F8255003F003044FEA840E0F2404FA3F
:1012F8000EF425EA0405204CA0423FF45DAF04F546
:101308008064A04222D004F58064A04220D004F575
:101318008064A0421ED004F58064A0421CD004F56D
:101328008064A0421AD004F58064A04218D004F565
:101338008064A04216D004F58064A04214D004F55D
:101348008064A0423FF436AF0A2436E7012434E72C
:10135800022432E7032430E704242EE705242CE78F
:1013680006242AE7072428E7082426E703B0F0BD67
:101378000004005800440258000002580AB1816174
:101388007047090481617047436901EA030221EA51
:10139800030141EA0241816170470000134BDB6899
:1013A80013F0040F07D1114BDB6803F007038342E6
:1013B8001AD00120704710B50C4AD36823F00703F0
:1013C8001843D06000F076F80446084B5B6813F4C5
:1013D800005F07D100F06EF8001BB0F57A7FF4D9F2
:1013E800012000E0002010BD00207047004802588E
:1013F800104B1B780BB90120704710B504464FF409
:101408007A70B0FBF3F30C4A1068B0FBF3F0FFF707
:10141800A3F868B90F2C01D901200AE0002221465F
:101428004FF0FF30FFF762F8044B1C60002000E02B
:10143800012010BD0000002008000020040000204A
:1014480010B50320FFF740F8FFF73EFC0F498B6902
:10145800C3F303230E4AD35C03F01F03D8408B6900
:1014680003F00F03D35C03F01F0320FA03F3094AC8
:101478001360094B18600F20FFF7BAFF10B1012461
:10148800204610BD0446FFF70DF8F9E7004402585E
:10149800D01600080C00002008000020034B1B7821
:1014A800034A11680B441360704700BF0000002016
:1014B8002C000020014B1868704700BF2C0000204A
:1014C80038B50446FFF7F6FF0546B4F1FF3F02D0F2
:1014D800044B1B781C44FFF7EDFF401BA042FAD3D6
:1014E80038BD00BF00000020014B1868000C704791
:1014F8000010005C314AD2F8883043F47003C2F817
:1015080088302F4B1B6803F00F03062B06D82C4A94
:10151800136823F00F0343F007031360294B1A687D
:1015280042F001021A6000221A611968264A0A402C
:101538001A60234B1B6813F0080F06D0204A136863
:1015480023F00F0343F0070313601E4B00229A6138
:10155800DA611A621D4999621D49D9621D491963E8
:101568005A639963DA6319645A64196821F480210B
:1015780019601A66184B1A68184B1340B3F1005FCC
:1015880003D2174B0122C3F808210E4BD3F8D430ED
:1015980013F4805F10D10B4BD3F8D42042F480525F
:1015A800C3F8D4200F4A43F2D2011160D3F8D420F3
:1015B80022F48052C3F8D420704700BF00ED00E049
:1015C80000200052004402587FEDF6EA00020202B1
:1015D8000000FF01800201010010005C0000FFFF15
:1015E8000080005100400052044BDA6842F00202C9
:1015F800DA605A689204FCD5704700BF0048025868
:10160800DFF838D0FFF7F0FFFFF774FF0C480D49FB
:101618000D4A002302E0D458C4500433C4188C4245
:10162800F9D30A4A0A4C002301E013600432A242AB
:10163800FBD300F011F8FEF713FFFEE700000220CD
:101648000000002010000020E8160008100000200C
:1016580030000020FEE7000070B50D4D0D4C641BF6
:10166800A4100026A64209D10B4D0C4C00F020F81E
:10167800641BA4100026A64205D170BD55F8043B92
:1016880098470136EEE755F8043B98470136F2E7EC
:10169800E0160008E0160008E0160008E416000846
:1016A80002440346934200D1704703F8011BF9E74F
:1016B800F8B500BFF8BC08BC9E467047F8B500BF37
:0816C800F8BC08BC9E46704707
:1016D00000000000010203040102030406070809D8
:0416E000BD0200083F
:0416E400990200085F
:1016E80001000000100000000090D0030090D0031B
:0400000508001609D0
:00000001FF
